:020000040800F2
:10000000E011002011B301082DB3010831B301083C
:1000100035B3010839B301083DB301080000000001
:1000200000000000000000000000000041B30108D3
:1000300045B301080000000049B301084DB30108B1
:1000400051B3010855B3010859B301084FA801087D
:100050005DB3010861B3010865B3010869B3010824
:100060006DB3010871B3010875B3010879B30108D4
:100070007DB3010881B3010885B3010889B3010884
:100080008DB3010891B3010895B3010899B3010834
:100090009DB30108A1B30108A5B30108A9B30108E4
:1000A000ADB30108B1B30108B5B30108B9B3010894
:1000B00071A70108BDB30108C1B30108C5B30108A8
:1000C000C9B30108CDB30108D1B30108D5B3010804
:1000D000D9B30108DDB30108E1B3010899A701080C
:1000E000E5B30108E9B30108EDB30108F1B3010874
:1000F000F5B30108F9B30108FDB3010801B4010823
:1001000005B4010809B401080DB4010811B40108CF
:1001100015B4010819B401081DB4010821B401087F
:1001200025B4010829B401082DB4010831B401082F
:10013000021011151617181C1D292A2B2C2D9BC0D7
:10014000E6E7E8E9EAEBECEDEE000000808082886B
:100150000000C000000080006A080C0000000000E1
:100160000000880000000000818182880000C0003B
:10017000000080006A080C000000000000008800F9
:1001800000000000828282880000C0000000800021
:100190006D080C0000000000000088000000000056
:1001A000838382880000C000000080006D080C007E
:1001B00000000000000088000000000080808288AD
:1001C0000000C00000008000100864000000000073
:1001D000000088B400000000818182880000C00017
:1001E000000080001008640000000000000088B4D7
:1001F00000000000808082880000C00000008001B4
:1002000000101401000000000000889C00000000A5
:10021000818182880000C000000080006A0814000C
:100220000000000000008800000000008282828838
:100230000000C000000080006D08140000000000F5
:100240000000880000000000838382880000C00056
:100250000000800100101401000000000000889CD4
:100260000000000080808278FE00C0000000800056
:1002700000003400000000000000889C80000000A6
:1002800081818278FE00C00000008010204D340083
:1002900000000000000088000000000082828278D8
:1002A000FE00C00000008010204D3400000000005F
:1002B000000088000000000083838278FE00C000F8
:1002C00000008010244D3400000000000000880071
:1002D00000000000008082880000C0000000801044
:1002E0001D4C0C0100000000000088000000000010
:1002F000018182880000C000000080101D4C0C01AC
:1003000000000000000088000000000002828288D7
:100310000000C00000008010244C0C010000000010
:100320000000880000000000038382880000C000F5
:1003300000008010244C0C01000000000000880028
:1003400000000000008082880000C00000008000E3
:10035000984C640100000000000088780000000054
:10036000018082880000C00000008000984C640179
:1003700000000000000088780000000000808288F3
:100380000000C000000080021119140100000000EC
:100390000000880000000000018182880000C00089
:1003A000000080101E4C14010000000000008800B6
:1003B00000000000028282880000C000000080105F
:1003C000244C140100000000000088000000000020
:1003D000038382880000C00000008002111914010C
:1003E000000000000000880000000000008082780B
:1003F000FE00C00000008000111A34000000000060
:100400000000880000000000018182880000C00018
:10041000000080213032340100000000000088001C
:1004200000000000028282880000C00000008021DD
:10043000303234010000000000008800000000009D
:10044000038382880000C000000080213C32340118
:10045000000000000000880000000000008082888A
:100460000100C00000408000007F0C01000000007F
:100470000000880000000000018182880100C000A7
:1004800000408000007F0C00000000000000880099
:1004900000000000028282880102C000004080004B
:1004A000007F0C0000000000000088000000000039
:1004B000038382880102C00000408000007F0C009E
:1004C00000000000000088000000000000C08288DA
:1004D0000000C00000008000807F64010000000078
:1004E000000288B50000000001C182880000C00041
:1004F00000008000807F640100000000000288B5D9
:100500000000000000C082880000C00000008003DE
:10051000000014010000000000008800000000003E
:10052000018182880200C00009408000007F140120
:1005300000000000000088000000000002828288A5
:100540000202C00000408000007F14010000000093
:10055000000088000000000003C30278FF00C00014
:10056000000080030000140100000000000088006B
:100570000000000000C082880000C0000000800071
:10058000003F340000000000000088000000000070
:10059000018182880300C000004080017F7F340019
:1005A0000000000000008800000000000282828835
:1005B0000300C000004080017F7F34010000000084
:1005C0000000880000000000038382880300C00050
:1005D000004080017F7F340100000000000088009F
:1005E00000000000008082880101C00000408001FE
:1005F0007D7F0C010000000000008800000000006A
:10060000018182880101C000004080017D7F0C01D2
:1006100000000000000088000000000002828288C4
:100620000101C00000408001807F0C01000000003B
:100630000000880000000000038382880101C000E0
:1006400000408001807F0C01000000000000880055
:100650000000000000A082880001C000004080115E
:100660004A7F6401000000000000887D0000000057
:1006700001A182880001C000004080114A7F64010E
:10068000000000000000887D0000000000A08288BB
:100690000101C000004080047F7F140100000000C1
:1006A0000000880000000000018182880100C00075
:1006B000004080017D7F14010000000000008800E0
:1006C00000000000028282880100C000004080011A
:1006D000807F14010000000000008800000000007E
:1006E00003A382880101C000004080047F7F1401C1
:1006F00000000000000088000000000000C08288A8
:100700000300C0000B0080017E1F340100000000C8
:100710000000880000000000018182880201C00002
:10072000004080133D3E34010000000000008800BE
:1007300000000000028282880201C0000040801395
:100740003D3E340100000000000088000000000071
:10075000038382880201C000004080133D3E3401C3
:100760000000000000008800000000000080827887
:10077000FE00C00000008001FD000C000000000031
:10078000000088000000000001818278FE00C000A7
:1007900000008001FD000C00000000000000880047
:1007A0000000000002828278FE00C000000080117C
:1007B00001000C00000000000000880000000000A4
:1007C00003838278FE00C0000000801101000C004D
:1007D0000000000000008800000000000080827817
:1007E000FE00C000000080018000640000000000E6
:1007F000000088B50000000001818278FE00C00082
:10080000000080018000640000000000000088B546
:100810000000000000808278FE00C000000080031D
:10082000000014000000000000008800000000002C
:1008300001818278FE00C00000008000FD8014006D
:1008400000000000000088000000000002828278A2
:10085000FE00C00000008000FF80140000000000C7
:10086000000088000000000003838278FE00C000C2
:100870000000800300001400000000000000880059
:100880000000000000808278FE00C00000008000B0
:10089000003F34000000000000008800000000005D
:1008A000018182880000C00000008011FE7F3400BA
:1008B0000000000000008800000000000282828822
:1008C0000000C00000008011FE7F34000000000026
:1008D0000000880000000000038382880000C00040
:1008E00000008011FE7F340000000000000088003E
:1008F00000000000008082880100C000000080111C
:10090000FA7F0C01000000000000880000000000D9
:10091000018182880100C00000008011FA7F0C0173
:1009200000000000000088000000000002828288B1
:100930000100C00000008011FA7F0C0100000000DF
:100940000000880000000000038382880100C000CE
:1009500000008011FA7F0C010000000000008800F8
:1009600000000000008082880100C00000008011AB
:100970004A7F6401000000000000887D0000000044
:10098000018182880100C000000080114A7F64015B
:10099000000000000000887D0000000000808288C8
:1009A0000100C000000080047F80140100000000EE
:1009B0000000880000000000018182880200C00061
:1009C00000008011FA7F1401000000000000880080
:1009D00000000000028282880200C0000000801136
:1009E000FA7F1401000000000000880000000000F1
:1009F000038382880100C000000080047F8014010E
:100A000000000000000088000000000000808288D4
:100A10000200C000040080017E20340100000000BC
:100A20000000880000000000018182880200C000F0
:100A300000008033763D3401000000000000880093
:100A400000000000028282880200C00000008033A3
:100A5000763D340100000000000088000000000026
:100A6000038382880200C00000008033763D340199
:100A700000000000000088000000000080808288E4
:100A80000000C00000008000E32A0C00000000000D
:100A90000000880000000000818182880000C00002
:100AA00000008000E32A0C00000000000000880025
:100AB00000000000828282880002C00000008000E6
:100AC000E32A0C0000000000000088000000000085
:100AD000838382880002C00000008000E32A0C00AB
:100AE0000000000000008800000000008080828874
:100AF0000000C00100008000542A640000000000D3
:100B00000000889C00000000818182880000C001F4
:100B100000008000542A6400000000000000889C4F
:100B200000000000808082880000C000000080017A
:100B300000551401000000000000881C00000000A7
:100B4000818182880000C00000008000E22A140039
:100B500000000000000088000000000082828288FF
:100B60000000C00000008000E72A14000000000020
:100B70000000880000000000838382880000C0001D
:100B80000000800100551401000000000000881CD6
:100B90000000000080808278FE00C000000080001D
:100BA00000003400000000000000881C000000006D
:100BB000818182880000C00000008010D67F34014F
:100BC000000000000000880000000000828282888F
:100BD0000000C00000008010D67F3401000000003B
:100BE0000000880000000000838382880000C000AD
:100BF00000008010DC7F340100000000000088004D
:100C000000000000008082880000C000000080100A
:100C1000D47F0C01000000000000880000000000EC
:100C2000018182880000C00000008010D47F0C0188
:100C3000000000000000880000000000028282889E
:100C40000002C00000008010D97F0C0100000000ED
:100C50000000880000000000038382880002C000BA
:100C600000008010D97F0C01000000000000880007
:100C70000000000000808278FE00C00000008011AB
:100C8000000064010000000000008868000000000F
:100C900001818278FE00C000000080110000640025
:100CA00000000000000088680000000000808288CA
:100CB0000000C000000080036C0014010000000070
:100CC0000000880000000000018182880000C00050
:100CD00000008010D47F1401000000000000880094
:100CE00000000000028282880000C0000000801026
:100CF000DC7F1401000000000000880000000000FC
:100D0000038382880000C000000080036C0014018F
:100D100000000000000088000000000000808278D1
:100D2000FE00C000000080006C40340000000000A5
:100D30000000880000000000018182880000C000DF
:100D400000008031417E3401000000000000880076
:100D500000000000028282880000C0000000803194
:100D6000417E340100000000000088000000000007
:100D7000038382880000C00000008031517E34016E
:100D800000000000000088000000000080808288D1
:100D90000000C000000080006A2A0C000000000073
:100DA0000000880000000000818182880000C000EF
:100DB000000080006A2A0C0000000000000088008B
:100DC00000000000828282880000C00000008000D5
:100DD0006D2A0C00000000000000880000000000E8
:100DE000838382880000C000000080006D2A0C0010
:100DF0000000000000008800000000008080827871
:100E0000FE00C00000008000542A640000000000C2
:100E1000000088FC0000000081818278FE00C00094
:100E200000008000542A640000000000000088FCDC
:100E300000000000808082880000C0000000800167
:100E400000541401000000000000889C0000000015
:100E5000818182880000C000000080006A2A14009E
:100E600000000000000088000000000082828288EC
:100E70000000C000000080006D2A14000000000087
:100E80000000880000000000838382880000C0000A
:100E90000000800100541401000000000000889C44
:100EA0000000000080808278FE00C000000080000A
:100EB00000003400000000000000889C00000000DA
:100EC000818182880000C00000008010207F3401F2
:100ED000000000000000880000000000828282887C
:100EE0000000C00000008010207F340100000000DE
:100EF0000000880000000000838382880000C0009A
:100F000000008010267F34010000000000008800EF
:100F100000000000008082880000C00000008010F7
:100F20001E7F0C010000000000008800000000008F
:100F3000018182880000C000000080101E7F0C012B
:100F4000000000000000880000000000028282888B
:100F50000000C00000008010227F0C010000000093
:100F60000000880000000000038382880000C000A9
:100F700000008010227F0C010000000000008800AB
:100F800000000000008082880000C0000000801087
:100F9000007F640100000000000088A8000000003D
:100FA000018182880000C00000008010007F640181
:100FB00000000000000088A8000000000080828877
:100FC0000000C000000080031100140100000000B8
:100FD0000000880000000000018182880000C0003D
:100FE000000080101E7F1401000000000000880037
:100FF00000000000028282880000C0000000801013
:10100000227F1401000000000000880000000000A2
:10101000038382880000C0000000800311001401D7
:1010200000000000000088000000000000808288AE
:101030000000C000020080001140340100000000E8
:101040000000880000000000018182880000C000CC
:1010500000008021307E3401000000000000880084
:1010600000000000028282880000C0000000802191
:10107000307E340100000000000088000000000005
:10108000038382880000C000000080213A7E340182
:1010900000000000000088000000000080808288BE
:1010A0000000C00000008000792A0C000000000051
:1010B0000000880000000000818182880000C000DC
:1010C00000008000792A0C00000000000000880069
:1010D00000000000828282880000C00000008000C2
:1010E0007C2A0C00000000000000880000000000C6
:1010F000838382880000C000000080007C2A0C00EE
:10110000000000000000880000000000808082884D
:101110000000C00100008000542A640000000000AC
:10112000000088F000000000818182880000C0017A
:1011300000008000542A640100000000000088F0D4
:1011400000000000808082880000C0000000800154
:1011500000551401000000000000888C0000000011
:10116000818182880000C00000008000792A14007C
:1011700000000000000088000000000082828288D9
:101180000000C000000080007C2A14000000000065
:101190000000880000000000838382880000C000F7
:1011A0000000800100551401000000000000888C40
:1011B0000000000080808278FE00C00000008000F7
:1011C00000003400000000000000888C00000000D7
:1011D00081818278FE00C00000008011340034015B
:1011E0000000000000008800000000008282827879
:1011F000FE00C00000008011340034010000000037
:10120000000088000000000083838278FE00C00098
:10121000000080113A003401000000000000880046
:1012200000000000008082880000C00000008010E4
:10123000357F0C0100000000000088000000000065
:10124000018182880000C00000008010357F0C0101
:101250000000000000008800000000000282828878
:101260000000C000000080103B7F0C010000000067
:101270000000880000000000038382880000C00096
:10128000000080103B7F0C0100000000000088007F
:1012900000000000008082880000C0000000801074
:1012A000007F640100000000000088A00000000032
:1012B000018182880000C00000008010007F64016E
:1012C00000000000000088A000000000008082886C
:1012D0000000C000000080031C001401000000009A
:1012E0000000880000000000018182880000C0002A
:1012F00000008010357F140100000000000088000D
:1013000000000000028282880000C00000008010FF
:101310003B7F140100000000000088000000000076
:10132000038382880000C000000080031C001401B9
:1013300000000000000088000000000000808278AB
:10134000FE00C000000080001C40340000000000CF
:101350000000880000000000018182880000C000B9
:1013600000008021527E340100000000000088004F
:1013700000000000028282880000C000000080217E
:10138000527E3401000000000000880000000000D0
:10139000038382880000C000000080215D7E34014C
:1013A00000000000000088000000000080808278BB
:1013B000FE00C000000080006A350C000000000044
:1013C000000088000000000081818278FE00C000DB
:1013D000000080006A350C0000000000000088005A
:1013E0000000000082828278FE00C00000008000C1
:1013F0006D350C00000000000000880000000000B7
:1014000083838278FE00C000000080006D350C00F0
:10141000000000000000880000000000808082784A
:10142000FE00C001000080006A356400000000007A
:101430000000980C0000000081818278FE00C0014D
:10144000000080006A356400000000000000980C75
:1014500000000000808082880000C0000000800141
:10146000006A1401000000000000889C00000000D9
:1014700081818278FE00C000000080006A3514007F
:1014800000000000000088000000000082828278D6
:10149000FE00C000000080006D3514000000000058
:1014A0000000880000000000838382880000C000E4
:1014B00000008001006A1401000000000000889C08
:1014C0000000000080808278FE00C00000008000E4
:1014D00000083400000000000000889C00000000AC
:1014E000818182880000C00000008011200F34013B
:1014F0000000000000008800000000008282828856
:101500000001C000000080111F0F34010000000026
:101510000000880000000000838382880001C00072
:1015200000008011230F340100000000000088003B
:101530000000000000808278FE00C00000008011E2
:101540001E100C01000000000000880000000000D8
:1015500001818278FE00C000000080111E100C0185
:101560000000000000008800000000000282827875
:10157000FE00C0000000801125100C0100000000DA
:10158000000088000000000003838278FE00C00095
:101590000000801125100C010000000000008800F0
:1015A00000000000008082880000C0000000801160
:1015B0001E0F640100000000000088B3000000005E
:1015C000018182880000C000000080111E0F6401AC
:1015D00000000000000088B3000000000080828846
:1015E0000000C00000008003112014010000000072
:1015F0000000880000000000018182880000C00017
:10160000000080111E0F140100000000000088007F
:1016100000000000028282880000C00000008011EB
:10162000250E1401000000000000880000000000EA
:10163000038382880000C000000080031120140191
:101640000000000000008800000000000080827898
:10165000FE00C00000008000104C340000000000BC
:101660000000880000000000018182880000C000A6
:10167000000080222F1634010000000000008800C6
:1016800000000000028282880001C0000000802269
:101690002F16340100000000000088000000000048
:1016A000038382880001C0000000802239163401C3
:1016B00000000000000088000000000080808278A8
:1016C000FE00C000000080006A360C000000000030
:1016D000000088000000000081818278FE00C000C8
:1016E000000080006A360C00000000000000880046
:1016F0000000000082828278FE00C00000008000AE
:101700006D360C00000000000000880000000000A2
:1017100083838278FE00C000000080006D360C00DC
:101720000000000000008800000000008080827837
:10173000FE00C000000080006C3664000000000065
:101740000000980E0000000081818278FE00C00039
:10175000000080006C366400000000000000980E5D
:1017600000000000808082880000C000000080012E
:10177000006C1401000000000000889C00000000C4
:1017800081818278FE00C000000080006A3614006B
:1017900000000000000088000000000082828278C3
:1017A000FE00C000000080006D3614000000000044
:1017B0000000880000000000838382880000C000D1
:1017C00000008001006C1401000000000000889CF3
:1017D00000000000808082880100C00000008000BE
:1017E00000083400000000000000889C0000000099
:1017F000818182880000C000000080112011340126
:101800000000000000008800000000008282828842
:101810000001C000000080111F1134010000000011
:101820000000880000000000838382880001C0005F
:101830000000801123113401000000000000880026
:1018400000000000008082880000C00000008011BD
:101850001E110C01000000000000880000000000C4
:10186000018182880000C000000080111E110C015F
:101870000000000000008800000000000282828852
:101880000000C0000000801125110C0100000000C4
:101890000000880000000000038382880000C00070
:1018A0000000801125110C010000000000008800DC
:1018B00000000000008082880000C000000080114D
:1018C0002211640100000000000088B40000000044
:1018D000018182880000C000000080112211640193
:1018E00000000000000088B4000000000080828832
:1018F0000000C0000000800311211401000000005E
:101900000000880000000000018182880000C00003
:10191000000080111E10140100000000000088006B
:1019200000000000028282880000C00000008011D8
:1019300025101401000000000000880000000000D5
:10194000038382880000C00000008003112114017D
:101950000000000000008800000000000080827885
:10196000FE00C00002008000104D340000000000A6
:101970000000880000000000018182880000C00093
:10198000000080222F1734010000000000008800B2
:1019900000000000028282880000C0000000802257
:1019A0002F17340100000000000088000000000034
:1019B000038382880000C0000000802239173401B0
:1019C0000000000000008800000000000080828805
:1019D0000000C00000008000EF3A0C000000000092
:1019E0000000880000000000018182880000C00023
:1019F00000008000EF3A0C000000000000008800AA
:101A000000000000028282880001C0000000800007
:101A1000F23A0C0000000000000088000000000006
:101A2000038382880001C00000008000F23A0C00AD
:101A30000000000000008800000000000080828894
:101A40000000C00000008000743A64010000000043
:101A5000000088B400000000018182880000C000FE
:101A600000008000743A640100000000000088B4A7
:101A700000000000008082880000C000000080019B
:101A800000751401000000000000880F0000000035
:101A9000018182880000C00000008000EF3A14003D
:101AA0000000000000008800000000000282828820
:101AB0000000C00000008000F23A140000000000A6
:101AC0000000880000000000038382880000C0003E
:101AD0000000800100751401000000000000880F64
:101AE0000000000000808278FE00C000000080003E
:101AF000000C3400000000000000880F000000000F
:101B0000018182880000C00000008011E8173401C4
:101B100000000000000088000000000002828288AF
:101B20000000C00000008011E81734010000000030
:101B30000000880000000000038382880000C000CD
:101B400000008011ED173401000000000000880043
:101B500000000000008082880000C00000008011AA
:101B6000E5170C01000000000000880000000000E4
:101B7000018182880000C00000008011E5170C017F
:101B8000000000000000880000000000028282883F
:101B90000000C00000008011EF170C0100000000E1
:101BA0000000880000000000038382880000C0005D
:101BB00000008011EF170C010000000000008800F9
:101BC00000000000008082880000C000000080113A
:101BD0002E1764010000000000008878000000005B
:101BE000018182880000C000000080112E1764016E
:101BF000000000000000887800000000008082885B
:101C00000000C000000080037530140100000000D7
:101C10000000880000000000018182880000C000F0
:101C200000008011E517140100000000000088008A
:101C300000000000028282880000C00000008011C5
:101C4000EF171401000000000000880000000000F1
:101C5000038382880000C0000000800375301401F7
:101C60000000000000008800000000000080828862
:101C70000000C00000008000755234010000000028
:101C80000000880000000000018182880000C00080
:101C9000000080325D223401000000000000880056
:101CA00000000000028282880000C0000000803234
:101CB0005D223401000000000000880000000000E8
:101CC000038382880000C000000080326B22340150
:101CD00000000000000088000000000000808288F2
:101CE0000000C00000008000A93F0C0000000000C0
:101CF0000000880000000000018182880000C00010
:101D000000008000A93F0C000000000000008800D7
:101D100000000000028282880002C00000008000F3
:101D2000A93F0C0000000000000088000000000037
:101D3000038382880002C00000008000A93F0C00DD
:101D40000000000000008800000000000080827891
:101D5000FE00C00100008000804064000000000020
:101D6000000088F00000000001818278FE00C001C0
:101D7000000080008040640000000000000088F047
:101D800000000000008082880000C0020000800285
:101D900000001401000000000000885A000000004C
:101DA00001818278FE00C00000008000A94014007C
:101DB000000000000000880000000000028282781D
:101DC000FE02C00000008000A940140000000000D6
:101DD0000000880000000000038382880002C00227
:101DE0000000800200001401000000000000885A7A
:101DF0000000000000808278FE00C000000080002B
:101E000000103400000000000000885A00000000AC
:101E1000010182880000C000000080117E1F340193
:101E2000000000000000880000000000028282889C
:101E30000000C000000080117E1F3401000000007F
:101E40000000880000000000038382880002C002B6
:101E500000008011831F3401000000000000880092
:101E600000000000008082880000C0000000801197
:101E70007C1F0C0100000000000088000000000032
:101E8000018182880000C000000080117C1F0C01CD
:101E9000000000000000880000000000028282882C
:101EA0000000C00000008011831F0C010000000032
:101EB0000000880000000000038382880000C0004A
:101EC00000008011831F0C0100000000000088004A
:101ED00000000000008082880000C0000000801127
:101EE0003E1F640100000000000088A00000000008
:101EF000018182880000C000000080113E1F640143
:101F000000000000000088A000000000008082881F
:101F10000000C00000008003403F140100000000EA
:101F20000000880000000000018182880000C000DD
:101F3000000080117C1F14010000000000008800D8
:101F400000000000028282880000C00000008011B2
:101F5000831F140100000000000088000000000042
:101F6000038382880000C00000008003403F14010A
:101F7000000000000000880000000000008082884F
:101F80000000C00000008000405834010000000044
:101F90000000880000000000018182880000C0006D
:101FA00000008022BC2E34010000000000008800E8
:101FB00000000000028282880000C0000000802231
:101FC000BC2E34010000000000008800000000006A
:101FD000038382880000C00000008022CB2E3401E1
:101FE00000000000000088000000000000808288DF
:101FF0000000C0000000801036550C0100000000F9
:102000000000880000000000018182880000C000FC
:102010000000801036550C01000000000000880010
:1020200000000000028282880000C00000008010D2
:1020300039550C010000000000008800000000007D
:10204000038382880000C0000000801039550C0115
:10205000000000000000880000000000008082787E
:10206000FE00C00100008000AA55640000000000CE
:10207000000088B40000000001818278FE00C001E9
:1020800000008000AA55640000000000000088B431
:1020900000000000008082880000C0000000800274
:1020A0001C2A14010000000000008800000000004D
:1020B000018182880000C0000000801036551400A5
:1020C00000000000000088000000000002828288FA
:1020D0000000C0000000801039551400000000000E
:1020E0000000880000000000038382880000C00018
:1020F000000080021C2A140100000000000088007B
:102100000000000000808278FE00C0000000800017
:102110001C203400000000000000880000000000C7
:10212000018182880000C00000008021533F3401FB
:102130000000000000008800000000000282828889
:102140000000C00000008021533F34010000000067
:102150000000880000000000038382880000C000A7
:10216000000080215A3F3401000000000000880078
:1021700000000000008082880100C0000000802173
:10218000503F0C010000000000008800000000002B
:10219000018182880100C00000008021503F0C01B5
:1021A0000000000000008800000000000282828819
:1021B0000100C000000080215A3F0C010000000017
:1021C0000000880000000000038382880100C00036
:1021D000000080215A3F0C01000000000000880030
:1021E00000000000008082880000C0000000801114
:1021F0007E3F6401000000000000887800000000BD
:10220000018182880000C000000080117E3F6401CF
:102210000000000000008878000000000080828834
:102220000000C00000008004AA00140100000000AB
:102230000000880000000000018182880000C000CA
:1022400000008021503F14010000000000008800C1
:1022500000000000028282880000C000000080218F
:102260005A3F140100000000000088000000000038
:10227000038382880000C00000008004AA001401CB
:10228000000000000000880000000000008082883C
:102290000100C00000008000AA6F340100000000AF
:1022A0000000880000000000018182880100C00059
:1022B00000008032FD5E3401000000000000880054
:1022C00000000000028282880100C000000080320D
:1022D000FD5E3401000000000000880000000000E6
:1022E000038382880100C000000080420D5E34013B
:1022F00000000000000088000000000000808288CC
:102300000101C00000008000ED5F0C000000000033
:102310000000880000000000018182880101C000E7
:1023200000008000ED5F0C0000000000000088004D
:1023300000000000028282880100C00000008000CE
:10234000F25F0C00000000000000880000000000A8
:10235000038382880100C00000008000F35F0C004E
:10236000000000000000880000000000008082786B
:10237000FE00C00100008000C0606400000000009A
:10238000000088F00000000001818278FE00C0019A
:1023900000008000C060640000000000000088F0C1
:1023A00000000000008082880000C0000000800261
:1023B000003F1401000000000000880F0000000032
:1023C00001818278FE00C00000008000ED601401F1
:1023D00000000000000088000000000002828278F7
:1023E000FE00C00000008000F16014010000000049
:1023F0000000880000000000038382880000C00005
:102400000000800200401401000000000000880F5E
:102410000000000000808278FE00C0000000800004
:1024200000283400000000000000880F00000000B9
:10243000018182880200C00000008011E74F340152
:102440000000000000008800000000000282828876
:102450000200C00000008011E74F340100000000BE
:102460000000880000000000038382880200C00092
:1024700000008011EB4F34010000000000008800D4
:1024800000000000008082880000C0000000801171
:10249000E64F0C0100000000000088000000000072
:1024A000018182880000C00000008011E64F0C010D
:1024B0000000000000008800000000000282828806
:1024C0000000C00000008011EE4F0C010000000071
:1024D0000000880000000000038382880000C00024
:1024E00000008011EE4F0C01000000000000880089
:1024F00000000000008082880001C0000000801100
:102500009E4F640100000000000088A00000000051
:10251000018182880001C000000080119E4F64018B
:1025200000000000000088A00000000000808288F9
:102530000000C000000080047520140100000000AD
:102540000000880000000000018182880000C000B7
:1025500000008011E64F1401000000000000880018
:1025600000000000028282880000C000000080118C
:10257000EE4F140100000000000088000000000081
:10258000038382880000C0000000800475201401CD
:102590000000000000008800000000000080828829
:1025A0000001C00000008000757C340100000000C4
:1025B0000000880000000000018182880000C00047
:1025C000000080325C7634010000000000008800CA
:1025D00000000000028282880000C00000008032FB
:1025E0005C7634010000000000008800000000005C
:1025F000038382880000C0000000803269763401C5
:1026000000000000000088000000000000808278C8
:10261000FE00C0000000801136000C010000000028
:10262000000088000000000001818278FE00C000E8
:102630000000801136000C0100000000000088003E
:102640000000000002828278FE00C00000008011BD
:1026500039000C01000000000000880000000000AC
:1026600003838278FE00C0000000801139000C0155
:102670000000000000008800000000000080828848
:102680000000C00101008010008164010000000012
:10269000000088F00000000001818278FE00C00187
:1026A000000080110000640100000000000088F0BC
:1026B00000000000008082880000C000000080034D
:1026C0001D00140100000000000088000000000050
:1026D000018182880000C00000008010367F140154
:1026E00000000000000088000000000002828288D4
:1026F0000000C000000080103B7F140100000000BB
:102700000000880000000000038382880000C000F1
:10271000000080031D00140100000000000088007C
:102720000000000000808278FE00C00000008000F1
:102730001D40340000000000000088000000000080
:10274000018182880000C000000080225300340113
:102750000000000000008800000000000282828863
:102760000000C0000000802253003401000000007F
:102770000000880000000000038382880000C00081
:102780000000802258003401000000000000880092
:1027900000000000008082880000C000000080214E
:1027A000507F0C01000000000000880000000000C5
:1027B000018182880000C00000008021507F0C0150
:1027C00000000000000088000000000002828288F3
:1027D0000000C000000080215A7F0C0100000000B2
:1027E0000000880000000000038382880000C00011
:1027F000000080215A7F0C010000000000008800CA
:1028000000000000008082880000C00000008022DC
:102810000000640100000000000088A0000000002B
:10282000018182880000C000000080220000640155
:1028300000000000000088A00000000000808288E6
:102840000000C00000008005AA0014010000000084
:102850000000880000000000018182880000C000A4
:1028600000008021507F140100000000000088005B
:1028700000000000028282880000C0000000802169
:102880005A7F1401000000000000880000000000D2
:10289000038382880000C00000008005AA001401A4
:1028A0000000000000008800000000000080828816
:1028B0000000C00000008001AA20340100000000D8
:1028C0000000880000000000018182880000C00034
:1028D00000008033FA3E3401000000000000880050
:1028E00000000000028282880000C00000008033E7
:1028F000FA3E3401000000000000880000000000E3
:10290000038382880000C000000080430A3E340137
:1029100000000000000088000000000000C0827875
:10292000FE00C0000000800000000C00000000005D
:102930000000881E7800000001C18278FE00C000FF
:102940000000800000000C00000000000000881E55
:102950007800000002C28278FE00C0000000800003
:1029600000000C00000000000000881E780000003D
:1029700003C38278FE00C0000000800000000C004D
:10298000000000000000881E7800000000C082786F
:10299000FE00C00000008000000064000000000095
:1029A0000000982C7800000001C18278FE00C00071
:1029B0000000800000006400000000000000982C6F
:1029C0007800000000C08278FE00C0000000800097
:1029D00000401400000000000000982C00000000DF
:1029E00001C18278FE00C0000000800000001400D9
:1029F000000000000000881E7800000002C28278FB
:102A0000FE00C00000008000000014000000000074
:102A10000000881E7800000003C38278FE00C0001A
:102A20000000800000401400000000000000982C0E
:102A30000000000000C08278FE00C000000080009E
:102A400000003400000000000000992C1800000075
:102A500001C18278FE00C0000000800054103400E4
:102A600000000000000088000000000002C2827820
:102A7000FE00C00000008000541034000000000080
:102A8000000088000000000003C38278FE00C00040
:102A90000000800054103400000000000000880096
:102AA0000000000000C08278FE00C000000080002E
:102AB00053100C000000000000008800000000001F
:102AC00001C18278FE00C0000000800053100C009D
:102AD00000000000000088000000000002C28278B0
:102AE000FE00C0000000800056100C000000000036
:102AF000000088000000000003C38278FE00C000D0
:102B00000000800056100C0000000000000088004B
:102B10000000000000C08278FE00C00000008000BD
:102B20000010640000000000000088780000000031
:102B300001C18278FE00C000000080000010640027
:102B400000000000000088780000000000C08278CB
:102B5000FE00C00000008001002014000000000002
:102B6000000088780000000001C18278FE00C000EB
:102B700000008000530F14000000000000008800D7
:102B80000000000002C28278FE00C0000000800049
:102B9000530F140000000000000088000000000037
:102BA00003C38278FE00C0000000800100201400F2
:102BB00000000000000088780000000000C082785B
:102BC000FE00C00000008000000034000000000093
:102BD000000088784200000001C18278FE00C00039
:102BE00000008000FD573400000000000000880055
:102BF0000000000002C28278FE00C00000008000D9
:102C0000FD573400000000000000880000000000B4
:102C100003C38278FE00C00000008000FF5734002C
:102C200000000000000088000000000000808278A2
:102C3000FE00C0000000800000000C00000000004A
:102C40000000881E7800000001818278FE00C0002C
:102C50000000800000000C00000000000000881E42
:102C60007800000002828278FE00C0000000800030
:102C700000000C00000000000000881E780000002A
:102C800003838278FE00C0000000800000000C007A
:102C9000000000000000881E78000000008082789C
:102CA000FE00C00000008000000064000000000082
:102CB0000000982C7800000001818278FE00C0009E
:102CC0000000000000006400000010000000982CCC
:102CD0007800000000808278FE00C00000008000C4
:102CE00000401400000000000000982C00000000CC
:102CF00001818278FE00C000000080000000140006
:102D0000000000000000881E780000000282827827
:102D1000FE00C00000008000000014000000000061
:102D20000000881E7800000003838278FE00C00047
:102D30000000800000401400000000000000982CFB
:102D40000000000000808278FE00C00000008000CB
:102D500000003400000000000000992C1800000062
:102D600001818278FE00C000000080005310340012
:102D7000000000000000880000000000028282784D
:102D8000FE00C0000000800053103400000000006E
:102D9000000088000000000003838278FE00C0006D
:102DA0000000800056103400000000000000880081
:102DB0000000000000808278FE00C000000080005B
:102DC000520E0C000000000000008800000000000F
:102DD00001818278FE00C00000008000520F0C00CC
:102DE00000000000000088000000000002828278DD
:102DF000FE00C00000008000540F0C000000000026
:102E0000000088000000000003838278FE00C000FC
:102E100000008000540F0C0000000000000088003B
:102E20000000000000808278FE00C00000008000EA
:102E3000001064000000000000008878000000001E
:102E400001818278FE00C000000080000010640054
:102E500000000000000088780000000000808278F8
:102E6000FE00C000000080010020140000000000EF
:102E7000000088780000000001818278FE00C00018
:102E800000008000531014000000000000008800C3
:102E90000000000002828278FE00C0000000800076
:102EA000571014000000000000008800000000001F
:102EB00003838278FE00C00000008001002014001F
:102EC0000000000000008878000000000080827888
:102ED000FE00C00000008000000034000000100070
:102EE000000088784200000001818278FE00C00066
:102EF00000008000FE573400000000000000880041
:102F00000000000002828278FE00C0000000800005
:102F1000FE573400000000000000880000000000A0
:102F200003838278FE00C00000008000FE5734005A
:102F300000000000000088000000000000C082784F
:102F4000FE00C0000000800010000C000000000027
:102F5000000088007800000001C18278FE00C000F7
:102F60000000800010000C0000000000000088003D
:102F70007800000002C28278FE00C00000008000DD
:102F800010000C0000000000000088007800000025
:102F900003C38278FE00C0000000800010000C0017
:102FA00000000000000088007800000000C0827867
:102FB000FE00C0000000800000006400000000006F
:102FC000000088FC7800000001C18278FE00C0008B
:102FD000000080000000640000000000000088FC89
:102FE0007800000000C08278FE00C0000000800071
:102FF0000040140000000000000088FC00000000F9
:1030000001C18278FE00C0000000800010001400A2
:1030100000000000000088007800000002C28278F2
:10302000FE00C0000000800010001400000000003E
:10303000000088007800000003C38278FE00C00012
:10304000000080000040140000000000000088FC28
:103050000000000000C08278FE00C0000000800078
:103060000000340000000000000089FC180000008F
:1030700001C18278FE00C00000008000971034007B
:1030800000000000000088000000000002C28278FA
:10309000FE00C00000008000971034000000000017
:1030A000000088000000000003C38278FE00C0001A
:1030B000000080009A10340000000000000088002A
:1030C0000000000000C08278FE00C0000000800008
:1030D00097100C00000000000000880000000000B5
:1030E00001C18278FE00C0000000800097100C0033
:1030F00000000000000088000000000002C282788A
:10310000FE00C000000080009B100C0000000000CA
:10311000000088000000000003C38278FE00C000A9
:10312000000080009B100C000000000000008800E0
:103130000000000000C08278FE00C0000000800097
:10314000000F64000000000000008848000000003C
:1031500001C18278FE00C00000008000000F640002
:1031600000000000000088480000000000C08278D5
:10317000FE00C000000080010020140000000000DC
:10318000000088480000000001C18278FE00C000F5
:1031900000008000970F140000000000000088006D
:1031A0000000000002C28278FE00C0000000800023
:1031B000970F1400000000000000880000000000CD
:1031C00003C38278FE00C0000000800100201400CC
:1031D00000000000000088480000000000C0827865
:1031E000FE00C0000000800000003400000010005D
:1031F000000088484200000001C18278FE00C00043
:1032000000008010635634000000000000008800B9
:103210000000000002C28278FE00C00000008010A2
:103220006356340000000000000088000000000029
:1032300003C38278FE00C000000080106A5634008C
:10324000000000000000880000000000008082787C
:10325000FE00C0000000800010000C000000000014
:10326000000088007800000001818278FE00C00024
:103270000000800010000C0000000000000088002A
:103280007800000002828278FE00C000000080000A
:1032900011000C0000000000000088007800000011
:1032A00003838278FE00C0000000800011000C0043
:1032B0000000000000008800780000000080827894
:1032C000FE00C0000000800000006400000010004C
:1032D000000088FC7800000001818278FE00C000B8
:1032E000000080000000640000001000000088FC66
:1032F0007800000000808278FE00C000000080009E
:103300000040140000000000000088FC00000000E5
:1033100001818278FE00C000000080000F001400D0
:10332000000000000000880078000000028282781F
:10333000FE00C0000000800011001400000000002A
:10334000000088007800000003838278FE00C0003F
:10335000000080000040140000000000000088FC15
:103360000000000000808278FE00C00000008000A5
:103370000000340000000000000089FC180000007C
:1033800001810278FE00C000000080009810340027
:1033900000000000000088000000000002820278A7
:1033A000FE00C00000008000981034000000000003
:1033B000000088000000000003830278FE00C000C7
:1033C000000080009B103400000000000000880016
:1033D0000000000000808278FE00C0000000800035
:1033E00096100C00000000000000880000000000A3
:1033F00001818278FE00C0000000800096100C0061
:1034000000000000000088000000000002828278B6
:10341000FE00C000000080009A100C0000000000B8
:10342000000088000000000003838278FE00C000D6
:10343000000080009A100C000000000000008800CE
:103440000000000000808278FE00C00000008000C4
:10345000000F640000000000000088480000000029
:1034600001818278FE00C00000008000000F64002F
:103470000000000000008848000000000080827802
:10348000FE00C000000080010020140000000000C9
:10349000000088480000000001818278FE00C00022
:1034A000000080009610140000000000000088005A
:1034B0000000000002828278FE00C0000000800050
:1034C0009B101400000000000000880000000000B5
:1034D00003838278FE00C0000000800100201400F9
:1034E0000000000000008848000000000080827892
:1034F000FE00C0000000800000003400000010004A
:10350000000088484200000001818278FE00C0006F
:1035100000008010645734000000000000008800A4
:103520000000000002828278FE00C00000008010CF
:103530006457340000000000000088000000000014
:1035400003838278FE00C000000080106A573400B8
:103550000000000000008800000000000080827869
:10356000FE00C00000000001FF000C000000000091
:103570000000881EA000000001818278FE00C000CB
:1035800000000001FF000C00000000000000881E89
:10359000A000000002828278FE00C000000000014E
:1035A000FF000C00000000000000881EA0000000CA
:1035B00003838278FE00C00000000001FF000C00C1
:1035C000000000000000881EA0000000008082783B
:1035D000FE00C00000008000000064000000000049
:1035E0000000982CA000000001818278FE00C0003D
:1035F0000000800000006400000000000000982C23
:10360000A000000000808278FE00C0000000800062
:10361000002B1400000000000000982C00000000A7
:1036200001818278FE00C00000000001FF0014004C
:10363000000000000000881EA000000002828278C6
:10364000FE00C00000000001FF00140000000000A8
:103650000000881EA000000003838278FE00C000E6
:1036600000008000002B1400000000000000982CD7
:103670000000000000808278FE00C0000000800092
:1036800000003400000000000000992C4000000001
:1036900001818278FE00C0000000800053003400E9
:1036A0000000000000008800000000000282827814
:1036B000FE00C00000008000530034000000000045
:1036C000000088000000000003838278FE00C00034
:1036D0000000800056003400000000000000880058
:1036E0000000000000808278FE00C0000000800022
:1036F00052000C00000000000000880000000000E4
:1037000001818278FE00C0000000800052000C00A1
:1037100000000000000088000000000002828278A3
:10372000FE00C0000000800056000C0000000000F9
:10373000000088000000000003838278FE00C000C3
:103740000000800056000C0000000000000088000F
:103750000000000000808278FE00C0000000000130
:1037600000006400000000000000887800000000F5
:1037700001818278FE00C00000000000FD4064006E
:1037800000000000000088780000000000808288AF
:103790000000C00000008000007F14010000000055
:1037A000000088780000000001818278FE00C000DF
:1037B000000080005200140000000000000088009B
:1037C0000000000002828278FE00C000000080003D
:1037D00056001400000000000000880000000000F7
:1037E000038382880000C00000008000007F140175
:1037F0000000000000008877000000000080827850
:10380000FE00C000000000010000340000000000C5
:10381000000088786A00000001818278FE00C00004
:1038200000008000FD40340000000000000088001F
:103830000000000002828278FE00C00000008000CC
:10384000FD4034000000000000008800000000007F
:1038500003838278FE00C000000080100340340023
:103860000000000000008800000000000080827856
:10387000FE00C00000008000532A0C000000000081
:10388000000088000000000001818278FE00C00076
:1038900000008000532A0C00000000000000880097
:1038A0000000000002828278FE00C000000080005C
:1038B000562A0C00000000000000880000000000F4
:1038C00003838278FE00C00000008000562A0C00AE
:1038D00000000000000088000000000000808278E6
:1038E000FE00C00000008000002B6400000000000B
:1038F000000088B50000000001818278FE00C00051
:1039000000008000002B640000000000000088B56B
:103910000000000000808278FE00C00000008001EE
:103920000056140000000000000088B400000000F1
:10393000018182880000C00000008000532A14002A
:103940000000000000008800000000000282828861
:103950000000C00000008000532A14000000000096
:10396000000088000000000003830278FE00C00011
:10397000000080010056140000000000000088B420
:103980000000000000808278FE00C000000080007F
:103990000000340000000000000088B400000000B7
:1039A00001818278FE00C00000008001FE0034002A
:1039B0000000000000008800000000000282827801
:1039C000FE00C00000008001FE0034000000000086
:1039D000000088000000000003838278FE00C00021
:1039E00000008001FE00340000000000000088009C
:1039F0000000000000808278FE00C000000080000F
:103A0000FD800C00000000000000880000000000A5
:103A100001818278FE00C00000008000FD800C0063
:103A20000000000000008800000000000282827890
:103A3000FE00C00000008001FF000C00000000003C
:103A4000000088000000000003838278FE00C000B0
:103A500000008001FF000C00000000000000880052
:103A60000000000000808278FE00C000000080009E
:103A700087806400000000000000887D00000000D6
:103A800001818278FE00C000000080008780640011
:103A9000000000000000887D0000000000808278A7
:103AA000FE00C00000008002008014000000000042
:103AB000000088000000000001818278FE00C00044
:103AC00000008001FD0014000000000000008800DC
:103AD0000000000002828278FE00C0000000801119
:103AE0000300140000000000000088000000000037
:103AF00003838278FE00C000000080020080140072
:103B000000000000000088000000000000808278B3
:103B1000FE00C000000080000040340000000C00E7
:103B2000000088000000000001818278FE00C000D3
:103B300000008011FE7F34000000000000008800BB
:103B40000000000002828278FE00C00000008011A8
:103B5000FE7F34000000000000008800000000002C
:103B600003838278FE00C00000008011FF7F3400D4
:103B70000000000000008800000000000080828833
:103B80000000C000020080001A000C0000000000CD
:103B90000000880050000000018182880000C00001
:103BA000020080001A000C000000000000008800E5
:103BB00050000000028282880000C00002008000E5
:103BC0001C000C00000000000000880050000000F5
:103BD000038382880000C000020080001C000C00EB
:103BE0000000000000008800500000000080827883
:103BF000FE00C0000000000000566400000000004D
:103C0000000088F05000000001818278FE00C000B2
:103C100000000000A820640000000000000088F000
:103C200050000000008082880000C000000080007A
:103C30000055140100000000000088F000000000A2
:103C4000018182880000C000020080001A00140078
:103C500000000000000088005000000002828288FE
:103C60000000C000020080001C00140000000000E2
:103C70000000880050000000038382880000C0001C
:103C8000000080000055140100000000000088F0D2
:103C90000000000000808278FE00C00000000000EC
:103CA0000056340000000000000088F0F000000022
:103CB00001818278FE00C00000008000A82034004E
:103CC00000000000000088000000000002828278EE
:103CD000FE00C00000008000A820340000000000AA
:103CE000000088000000000003838278FE00C0000E
:103CF00000008000AB2034000000000000008800BD
:103D00000000000000808278FE00C00000008000FB
:103D1000A7200C0000000000000088000000000048
:103D200001818278FE00C00000008000A7200C0006
:103D3000000000000000880000000000028282787D
:103D4000FE00C00000008000AC200C00000000005D
:103D5000000088000000000003838278FE00C0009D
:103D600000008000AC200C00000000000000880073
:103D70000000000000808278FE00C001000080008A
:103D8000402064000000000000008878000000006F
:103D900001818278FE00C0010000800040206400A4
:103DA0000000000000008878000000000080828889
:103DB0000000C00000008001003F1401000000006E
:103DC0000000883C0000000001818278FE00C000F5
:103DD00000008000A7201400000000000000880000
:103DE0000000000002828278FE00C0000000800017
:103DF000AC2014000000000000008800000000005B
:103E0000038382880000C00000008001003F14018D
:103E1000000000000000883C000000000080827864
:103E2000FE00C00000000000004034000000000060
:103E30000000883C1A000000018182880000C00058
:103E4000000080107D6E340100000000000088003A
:103E500000000000028282880000C0000000801084
:103E60007D6E3401000000000000880000000000AA
:103E7000038382880000C00000008010846E34013B
:103E8000000000000000880000000000020304059C
:103E9000060708090A0B0C0D101115161718191A28
:103EA0001C1D1E28292A2B2C2D747E7F8081828345
:103EB0008485868788898A8B8C8D8E8F909192934A
:103EC00094959798999B9C9D9E9FA0A1A2A3A4A521
:103ED000A6A7A8A9AAABAFC0D6D7D8E6E7E8E9EA73
:103EE000EBECEDEE007518802008200A2008002079
:103EF000808278FE00C00026000020F00000110043
:103F0000000080000034000500FD04249458007E69
:103F1000032C8C00CC41C443F600401B90040000ED
:103F2000046544D89887325AC470401E2E00990008
:103F300000100000000000000088000000751880DC
:103F4000200C200A20090020808278FE00C0002476
:103F5000000020F00000007F4000800000340005D9
:103F600000FC0514DC6E007E03288C00CC41C45399
:103F70008100401A9004000002EE666E72655408DB
:103F80005830401E2E009900011000000000000073
:103F90000088000000751880200C200A200A0020EC
:103FA000C08278FE00C00026000020F00000110052
:103FB000000080000034000500FD04249458007EB9
:103FC000032C8C00CC41C48498807029900400009C
:103FD000046580D8988700800070401E2E009900EC
:103FE000000000000000000000880000007518803C
:103FF000200B200A200A0020A08278FE00C00021A9
:10400000000020F040800000000080000034000527
:1040100000FC0514DC6E007E03288C00CC41C484B7
:104020009C8070269004000002EE406E7265003F96
:10403000C010401E2E009A00010000000000000089
:104040000088000000751880200C200A200A00203B
:10405000808278FE00C00026000020F000001100E1
:10406000000080000034000500FD04249458007E08
:10407000032C8C00CC41C4849880702990040000EB
:10408000046580D8988700800070401E2E0099003B
:10409000000000000000000000880000007518808B
:1040A000200C200A200A0020808278FE00C0002414
:1040B000000020F00080007F4000800000340005F8
:1040C00000FC0514DC6E007E03288C00CC41C46229
:1040D0007200501A9004000002EE806E726500803B
:1040E0000070401E2E00990001100000000000002A
:1040F00000880000007518802008200A2006002093
:10410000808278FE00C00026000020F00000110030
:10411000000080000034000500FD04249458007E57
:10412000032C8C00CC41C454C800502690040000DD
:10413000046555D8988744792270401E2E00990056
:1041400000000000000000000088000000751880DA
:10415000200C200A200A0020808278FE00C0002463
:10416000000020F00080006C00008000003400059A
:1041700000FC0514DC6E007E03288C00CC41C46278
:104180007200501A9004000002EE806E726500808A
:104190000070401E2E009900011000000000000079
:1041A00000880000007518802008200A200B0020DD
:1041B000808278FE00C00026000020F00000110080
:1041C000000080000034000500FD04249458007EA7
:1041D000032C8C00CC41C4639C00501C9004000054
:1041E000046555D89887485AD870401E2E0099000B
:1041F000001000000000000000880000007518801A
:10420000200C200A20090020808278FE00C00024B3
:10421000000020F00000007F410080000034000515
:1042200000FC0514DC6E007E03288C00CC41C453D6
:104230008100501A9004000002EE806E7265000842
:104240005830401E2E0099000110000000000000B0
:1042500000880000007518802008200A200B00202C
:10426000808278FE00C00026000020F000001100CF
:10427000000080000034000500FD04249458007EF6
:10428000032C8C00CC41C4635600501E90040000E7
:10429000046555D89887445EC270401E2E00990070
:1042A0000010000000000000008800000075188069
:1042B000200C200A200A0020808278FE00C0002402
:1042C000000020F00080001C000080000034000589
:1042D00000FC0514DC6E007E03288C00CC41C46217
:1042E0007200501A9004000002EE806E7265008029
:1042F0000070401E2E009900011000000000000018
:1043000000880000007518802008200A200B00207B
:10431000808278FE00C00026000020F0000011001E
:10432000000080000034000500FD04249458007E45
:10433000032C8C00CC41C4639C50501C90040000A2
:1043400004655AD898879E5AD870401E2E0099004E
:1043500000100000000000000088000000751880B8
:10436000200C200A200A0020808278FE00C0002451
:10437000000020F0008000110800800000340005DB
:1043800000FC0514DC6E007E03288C00CC41C46266
:104390007200501A9004000002EE806E7265008078
:1043A0000070401E2E009900011000000000000067
:1043B00000880000007518802008200A200B0020CB
:1043C000808278FE00C00026000020F0000011006E
:1043D000000080000034000500FD04249458007E95
:1043E000032C8C00CC41C4639C56501C90040000EC
:1043F00004655BD89887005AD870401E2E0099003B
:104400000010000000000000008800000075188007
:10441000200C200A200A0020828278FF00C000249D
:10442000000000F000800011090080000034000549
:1044300000FC0514DC6E007E03288C00CC41C462B5
:104440007200501A9004000002EE7F6E72650080C8
:104450000070401E2C0099000110000000000000B8
:104460000088000000751880200C200A2008002019
:10447000808278FE00C00026000020F000001100BD
:10448000000080000034000500FD04249458007EE4
:10449000032C8C00CC41C4743A785029900400005D
:1044A00004655DD898874A7C9C70401E2E00990058
:1044B0000000000000000000008800000075188067
:1044C000200C200A200A0020808278FE00C00026EE
:1044D000000020F0008000750C0080000034000512
:1044E00000FC0514DC6E007E03288C00CC41C46205
:1044F0007200501A9004000002EE806E7265008017
:104500000070401E2E009900011000000000000005
:1045100000880000007518802008200A200600206E
:10452000808278FE00C00026000020F0000011000C
:10453000000080000034000500FD04249458007E33
:10454000032C8C00CC41C46392A050229004000044
:10455000046560D89887006A9A70401E2E00990002
:1045600000000000000000000088000000751880B6
:10457000200C200A200A0020808278FE00C000263D
:10458000000020F000800040100080000034000592
:1045900000FC0514DC6E007E03288C00CC41C46254
:1045A0007200501A9004000002EE806E7265008066
:1045B0000070401E2E009900011000000000000055
:1045C0000088000000751880200C200A200A0020B6
:1045D000808278FE00C00026000020F00080001CD1
:1045E000000080000034000500FD04249458007E83
:1045F000032C8C00CC41C484988070289004000067
:1046000004656AD898879B800070401E2E00990030
:104610000000000000000000008800000075188005
:10462000200C200A200A0020808278FE00C000248E
:10463000000020F0008000AA200080000034000567
:1046400000FC0514DC6E007E03288C00CC41C462A3
:104650007200501A9004000002EE806E72650080B5
:104660000070401E2E0099000110000000000000A4
:104670000088000000751880200C200A2008002007
:10468000808278FE00C00026000020F000001100AB
:10469000000080000034000500FD04249458007ED2
:1046A000032C8C00CC41C4743E9060289004000020
:1046B000046570D89887007C5670401E2E009900C3
:1046C0000000000000000000008800000075188055
:1046D000200C200A200A0020808278FE00C00024DE
:1046E000000020F0008000752800800000340005E4
:1046F00000FC0514DC6E007E03288C00CC41C462F3
:104700007200501A9004000002EE806E7265008004
:104710000070401E2E0099000110000000000000F3
:104720000088000000751880200C200A200A002054
:10473000808278FE00C00026000020F00080001C6F
:10474000000080000034000500FD04249458007E21
:10475000032C8C00CC41C484988070299004000004
:10476000046580D8988700800070401E2E00990054
:1047700000000000000000000088000000751880A4
:10478000200C200A200A0020808278FE00C000242D
:10479000000020F0008000AA4000800000340005E6
:1047A00000FC0514DC6E007E03288C00CC41C46242
:1047B0007200501A9004000002EE806E7265008054
:1047C0000070401E2E009901011000000000000042
:1047D00000880000007518802008200A21060020AB
:1047E000C08278FE00C00026000020F0000000001B
:1047F000000080000034000500FD04249458007E71
:10480000032C8C00CC41C43117D02011900400003F
:1048100004652FD89887CE38B070401E2E009900BE
:1048200000100000000000000088000000751880E3
:104830002008200A20070020C08278FE00C0002443
:10484000000020F00000000000008000003400059F
:1048500000FC0514DC6E007E03288C00CC41C431C2
:104860008CD020109004000002EE486E7265005457
:10487000A670001E2E00990001300000000000000C
:1048800000880000007518802008200A21070020F9
:10489000808278FE00C80023000020F0000001FFA5
:1048A000000080000034000500FD04249458007EC0
:1048B000032C8C00CC41C43187D02011900400001F
:1048C00004652FD99887E138C270001E2E00990028
:1048D00000100000000F0000008800000075188024
:1048E000200C200A20070020818278FE00C00025CD
:1048F000000020F0000000000000800000340005EF
:1049000000FC0514DC6E007E03288C00CC41C43111
:1049100088D020109004000002EE476F7265C455E5
:104920000670401E2E0099000130000000100000AB
:1049300000880000007518802008200A2108002047
:10494000C08278FE00C00026000020F0000001FFB9
:10495000000080000034000500FD04249458007E0F
:10496000032C8C00CC41C43256D02015900400009A
:1049700004652FD89887D4437D70401E2E0099007F
:104980000010000000000000008800000075188082
:104990002009200A20070020C08278FE00C00024E1
:1049A000000020F0008000000000800000340005BE
:1049B00000FC0514DC6E007E03288C00CC41C42270
:1049C000FED020119004000002EE486E7265006473
:1049D0005470401E2E0099000130000000000000BD
:1049E00000880000007518802007200A2107002099
:1049F000808278FE00C00026000020F00000000049
:104A0000000080000034000500FD04249458007E5E
:104A1000032C8C00CC41C422F1D02015900400005E
:104A2000046530D8988700440E70401E2E0099000F
:104A300000100000000F00000088000000751880C2
:104A40002008200A20070020808278FE00C0002471
:104A5000000020F0000000960F00800000340005E8
:104A600000FC0514DC6E007E03288C00CC41C422BF
:104A7000F1D020149004000002EE486E72650066CA
:104A80001070401E2E009900013000000000000050
:104A900000880000007518802008200A20030020EC
:104AA000808278FE00C00026000020F00000110087
:104AB000000080000034000500FD04249458007EAE
:104AC000032C8C00CC41C4318A802010900400005B
:104AD00004652AD898879A389070401E2E00990055
:104AE0000010000000000000008800000075188021
:104AF000200C200A20030020808278FE00C00024C1
:104B0000000020F00000007F40008000003400051D
:104B100000FC0514DC6E007E03288C00CC41C431FF
:104B2000868020119004000002EE406E72650055F0
:104B30003C70401E2E009900011000000000000093
:104B400000880000007518802008200A200A002034
:104B5000808278FE00C00026000020F000000000E7
:104B6000000080000034000500FD04249458007EFD
:104B7000032C8C00CC41C4627800501A90040000D1
:104B8000046555D8988744551970401E2E00990029
:104B90000010000000000000008800000075188070
:104BA0002009200A200A0020808278FE00C000240C
:104BB000000020F00000000000008000003400052C
:104BC00000FC0514DC6E007E03288C00CC41C4621E
:104BD0007200501A9004000002EE806E7265008030
:104BE0000070401E2E00990001100000000000001F
:104BF00000880000007518802008200A2005002089
:104C0000808278FE00C00026000020F000800000B6
:104C1000000080000034000500FD04249458007E4C
:104C2000032C8C00CC41C4423A2030169004000082
:104C3000046535D8988744470C70401E2E009900B3
:104C400000100000000000000088000000751880BF
:104C5000200C200A20050020808278FE00C000245D
:104C6000000020F00000007F4000800000340005BC
:104C700000FC0514DC6E007E03288C00CC41C4428D
:104C80003C2030159004000002EE506E7265006A00
:104C90005670401E2E009900011000000000000018
:104CA00000880000B8BABBBCBDBEB9000104255CD9
:104CB0000451830002089413824183000104255C9F
:104CC000027283000204255C0632830003267433DB
:104CD000824183000104255C0590830002589213F1
:104CE000818C83000358921382F58300010215E43E
:104CF000035A83000205DCDB817D8300010215E499
:104D0000021A8300020215E4049A830003241B9B09
:104D1000817D8300010215E4042E8300024530DB0F
:104D200081048300034530DB81F583000104255CA9
:104D300004518300010215E4035A830038B506F0DC
:104D40001AFD0546314C14220021204606F0D8FEFB
:104D50000020208000211F20A07100206080A08002
:104D60004FF4F06020814FF487606081284800EBA9
:104D70008530E060204607F0ACF8264C0C2200217C
:104D8000204606F0BDFE2046BDE83440002107F075
:104D900092B910B506F0EFFC1F490FF2041201EBB7
:104DA000803444F6C001204607F0BEF91B480121BB
:104DB00001704460242141700C2181701821C17060
:104DC000BDE81040114907F0DFB980B5FFF7E1FFFA
:104DD000FFF7B4FFBDE8014007F019BB14210B4AEF
:104DE00001FB00210D4807F0CFB9010009480CBFB5
:104DF0000FF22C010FF268018160002181804021B7
:104E0000C18040228368002107F083B9340A002062
:104E100000E6EFFF600C002040B7FFFF800D002090
:104E20000000000008F0080831F0313142F0424241
:104E3000EFF0EFEFBDF0BDBDFFF0FFFF73F0737358
:104E400052F05252DEF0DEDE9CF09C9C8CF08C8C9A
:104E5000CEF0CECEADF0ADAD63F06363FFF000FFFA
:104E60008000801080F0801780F0803A80F08049C8
:104E700080F080DD80F080B280F080EB80F0807385
:104E800080F0805680F080CF80F0809680F080881F
:104E900080F080C180F080A580F0806592F010D213
:104EA0000000000000000000000000000000000002
:104EB00000000000000000000000000000000000F2
:104EC00000000000000000000000000000000000E2
:104ED00000000000000000000000000000000000D2
:104EE00000000000000000000000000000000000C2
:104EF00000000000000000000000000000000000B2
:104F000000000000000000000000000000000000A1
:104F10000000000000000000000000000000000091
:104F20000000000000000000000000000000000081
:104F30000000000000000000000000000000000071
:104F40000000000000000000000000000000000061
:104F50000000000000000000000000000000000051
:104F60000000000000000000000000000000000041
:104F70000000000000000000000000000000000031
:104F80000000111000000000000126A10000000038
:104F9000000026D100000000000126D10000000022
:104FA000000126D100000000000126D10000000011
:104FB000000126D100000000000026B10000000022
:104FC00000011671000000000000147100000000D4
:104FD000000014E100000000000014810000000047
:104FE0000000172000000000000186C10000000042
:104FF000000176410000000000011BE100000000FC
:10500000000011100000000000000000000000007F
:105010000000000000000000000000000000000090
:105020000000000000000000000000000000000080
:10503000000000000000000000011011000000004E
:105040000013C17B10000000001861BC10000000BC
:10505000001861BC10000000001861BC10000000C6
:10506000001861BC100000000013C17A100000009D
:10507000000110110000000000000000000000000E
:105080000000000000000000000000000000000020
:105090000000000000000000000000000000000010
:1050A0000000000000000000000000000000000000
:1050B00000000000000000000000000000000000F0
:1050C00000000000000000000000000000000000E0
:1050D00000000000000000000000000000000000D0
:1050E00000000000000000000000000000000000C0
:1050F000000000000000000000001101110000008D
:1051000000017712B200000000116C1B6810000053
:1051100000126D1D62100000001E6B1C400000009C
:10512000011767149110000017666666667100002B
:1051300012B96BD65B210000011941767110000095
:105140000014C176E10000000126D1A63100000064
:1051500014666666641000001B565B44B7100000BE
:105160000176816C1100000001D6236D1000000053
:1051700001C61E67100000000149176E10000000F4
:1051800000110111000000000000000000000000FC
:10519000000000000000000000000000000000000F
:1051A00000000000000000000000000000000000FF
:1051B0000000011000000000000017710000000056
:1051C00000011C4110000000001A6666710000001A
:1051D0000156994467100000136C1C4269100000CE
:1051E00017671C41C61100001E6D1C41871000008E
:1051F0001146AC4111000000012966411000000079
:105200000011E96C7100000001101C4465100000E1
:105210001BC11C41568100001D621C41E67100004B
:105220001B670C41B671000012647C4764110000DA
:1052300001766666681000000011B94B110000008D
:1052400000011C410000000000001EE10000000001
:10525000000001100000000000000000000000003D
:10526000000000000000000000000000000000003E
:10527000000000000000000000000000000000002E
:105280000000000111000000011111176110000061
:105290000296C119910000001D696B267100000083
:1052A00019426CB62100000014404C991000000017
:1052B0001C67646710000000176669621110000027
:1052C000017BE9C5692000000011369696D10000E7
:1052D0000001A6C624910000000195C61C410000F3
:1052E0000018675629410000001A41A6B651000077
:1052F000001451266671000000148118B7100000D8
:10530000000110011100000000000000000000007A
:10531000000000000000000000000000000000008D
:10532000000000000000000000000000000000007D
:10533000000000000000000000000000000000006D
:1053400000011111000000000017666B1000000042
:1053500001869B96E100000001B681E6B1000000E5
:1053600001B6E186B10000000186D1D681000000BF
:10537000001C6D6510000000001B6651111000003C
:1053800001766651D611000012692967C611000026
:105390001A6E0864441000001D6211A66A10000015
:1053A0001D6301266A1000001765115666E10000B2
:1053B00001C66665864100000017BB8117710000B9
:1053C00000011110011000000000000000000000AA
:1053D00000000000000000000000000000000000CD
:1053E00000000000000000000000000000000000BD
:1053F000000000000000000000000110000000009C
:1054000000001A710000000000001CB10000000044
:1054100000001CB10000000000001CB100000000F2
:1054200000001CB10000000000001A710000000024
:10543000000001100000000000000000000000005B
:10544000000000000000000000000000000000005C
:10545000000000000000000000000000000000004C
:10546000000000000000000000000000000000003C
:10547000000000000000000000000000000000002C
:10548000000000000000000000000000000000001C
:10549000000000000000000000000000000000000C
:1054A00000000000000000000000000000000000FC
:1054B0000000001100000000000001E710000000E3
:1054C00000001365100000000000156810000000C7
:1054D000000186D1000000000001563100000000EC
:1054E00000116C100000000000186A10000000009D
:1054F0000017671000000000001B6810000000008B
:10550000001B681000000000001B68100000000075
:10551000001767100000000000186A10000000006B
:105520000011691000000000000156810000000019
:105530000001865100000000000015671000000007
:1055400000001244100000000000002310000000C2
:10555000000000010000000000000000000000004A
:10556000000000000000000000000000000000003B
:1055700000011100000000000012B1100000000046
:10558000001E6D10000000000001568100000000A8
:10559000000126510000000000001562100000000C
:1055A00000001E6B100000000000126C10000000D4
:1055B0000000009410000000000001C6110000006F
:1055C000000001C611000000000001C6110000002B
:1055D00000000149100000000000026C10000000F3
:1055E00000001767100000000000156210000000A6
:1055F00000018651000000000011968100000000AB
:10560000001B6A1000000000001181000000000073
:105610000001100000000000000000000000000079
:10562000000000000000000000000000000000007A
:10563000000000000000000000000000000000006A
:10564000000000000000000000000000000000005A
:105650000000000000000000000001100000000039
:10566000000017E100000000001116C11100000049
:10567000013816C18210000001C646466C100000B9
:105680000117C66571100000001144691100000087
:10569000001567B6A1000000001DA115B1000000B3
:1056A00000011001100000000000000000000000D8
:1056B00000000000000000000000000000000000EA
:1056C00000000000000000000000000000000000DA
:1056D00000000000000000000000000000000000CA
:1056E00000000000000000000000000000000000BA
:1056F00000000000000000000000000000000000AA
:105700000000000000000000000011100000000078
:1057100000011B8100000000000126B10000000014
:10572000000126B100000000000126B100000000C9
:10573000000126B100000000011126B11110000087
:10574000146666666681000017BBA65BBB2000007E
:10575000011126B111100000000126B10000000067
:10576000000126B100000000000126B10000000089
:10577000000126B100000000000011100000000030
:105780000000000000000000000000000000000019
:105790000000000000000000000000000000000009
:1057A00000000000000000000000000000000000F9
:1057B00000000000000000000000000000000000E9
:1057C00000000000000000000000000000000000D9
:1057D00000000000000000000000000000000000C9
:1057E00000000000000000000000000000000000B9
:1057F00000000000000000000000000000000000A9
:105800000000000000000000000000000000000098
:105810000000000000000000000000000000000088
:1058200000001111000000000001266210000000BD
:1058300000018668100000000000156210000000E2
:10584000000124B00000000000012710000000004B
:105850000000110000000000000000000000000037
:105860000000000000000000000000000000000038
:105870000000000000000000000000000000000028
:105880000000000000000000000000000000000018
:105890000000000000000000000000000000000008
:1058A00000000000000000000000000000000000F8
:1058B0000111111111100000028888888821000050
:1058C0001B66666666B00000011111111110000020
:1058D0000011111111000000000000000000000084
:1058E00000000000000000000000000000000000B8
:1058F00000000000000000000000000000000000A8
:105900000000000000000000000000000000000097
:105910000000000000000000000000000000000087
:105920000000000000000000000000000000000077
:105930000000000000000000000000000000000067
:105940000000000000000000000000000000000057
:105950000000000000000000000000000000000047
:105960000000000000000000000000000000000037
:105970000000000000000000000000000000000027
:105980000000000000000000000000000000000017
:105990000000000000000000000000000000000007
:1059A000000011110000000000012662100000003C
:1059B000000186681000000000001B71000000005C
:1059C00000000110000000000000000000000000C6
:1059D00000000000000000000000000000000000C7
:1059E00000000000000000000000000000000000B7
:1059F0000000000010000000000000013100000065
:105A000000000012681000000000001741100000A4
:105A10000000001C51000000000001267100000081
:105A20000000017620000000000001C50000000019
:105A30000000126710000000000017621000000054
:105A400000001C5000000000000126710000000052
:105A500000017621000000000001CC0000000000E1
:105A60000012671000000000001762100000000024
:105A70000015C100000000000026710000000000B9
:105A8000013C2000000000000011000000000000A8
:105A90000000000000000000000000000000000006
:105AA00000000000000000000000000000000000F6
:105AB00000000000000000000000000000000000E6
:105AC0000001111110000000001E466511000000C9
:105AD00001E66B56C1000000019631156710000009
